:100000000C9461000C947E000C947E000C947E0095
:100010000C947E000C947E000C947E000C947E0068
:100020000C947E000C947E000C947E000C947E0058
:100030000C947E000C947E000C947E000C947E0048
:100040000C94D8000C947E000C947E000C947E00DE
:100050000C947E000C947E000C947E000C947E0028
:100060000C947E000C947E00000000002400270009
:100070002A000000000023002600290000000000E4
:10008000250028002B0004040404040404040202D4
:100090000202020203030303030301020408102007
:1000A0004080010204081020010204081020000012
:1000B0000008000201000003040700000000000027
:1000C000000011241FBECFEFD8E0DEBFCDBF11E08E
:1000D000A0E0B1E0E6E3F4E002C005900D92A431A7
:1000E000B107D9F721E0A4E1B1E001C01D92A1322E
:1000F000B207E1F70E9422010C9419020C9400004F
:10010000833081F028F4813099F08230A1F0089595
:100110008730A9F08830B9F08430D1F48091800024
:100120008F7D03C0809180008F7780938000089539
:1001300084B58F7702C084B58F7D84BD089580918A
:10014000B0008F7703C08091B0008F7D8093B000A6
:1001500008951F93CF93DF93282F30E0F901E255E4
:10016000FF4F8491F901E656FF4FD491F901EA5708
:10017000FF4FC491CC23C1F0162F81110E94800043
:10018000EC2FF0E0EE0FFF1FE458FF4FA591B49164
:100190009FB7F894111104C08C91D095D82302C058
:1001A000EC91DE2BDC939FBFDF91CF911F910895DF
:1001B0001F920F920FB60F9211242F933F938F939C
:1001C0009F93AF93BF9380911D0190911E01A091C9
:1001D0001F01B091200130911C0123E0230F2D3726
:1001E00020F40196A11DB11D05C026E8230F02963B
:1001F000A11DB11D20931C0180931D0190931E0130
:10020000A0931F01B09320018091180190911901D2
:10021000A0911A01B0911B010196A11DB11D8093FF
:10022000180190931901A0931A01B0931B01BF917B
:10023000AF919F918F913F912F910F900FBE0F9093
:100240001F901895789484B5826084BD84B58160D0
:1002500084BD85B5826085BD85B5816085BD809191
:100260006E00816080936E00109281008091810009
:100270008260809381008091810081608093810001
:10028000809180008160809380008091B1008460C3
:100290008093B1008091B00081608093B000809124
:1002A0007A00846080937A0080917A0082608093E3
:1002B0007A0080917A00816080937A0080917A0040
:1002C000806880937A001092C100ACE0B1E08D911B
:1002D0009D919927FC01E656FF4F2491FC01EA57B6
:1002E000FF4F84918823C9F090E0880F991FFC018B
:1002F000E859FF4F45915491FC01E458FF4FC591D7
:10030000D4919FB7F894FA0180812095822380834D
:100310008881E22FE823E8839FBFF1E0A431BF0783
:10032000B1F6C4E0D1E0899199919C013327F9019C
:10033000E656FF4F4491F901EA57FF4F24912223DB
:1003400099F030E0220F331FF901E859FF4FA591D2
:10035000B491F901E458FF4F259134912FB7F894E7
:10036000EC91E42BEC932FBF61E00E94A90021E007
:10037000CC30D207C1F68824839430E0A32E30E03D
:10038000B32E94E1C92E91E0D92EC0E0D1E024E053
:10039000E22E21E0F22E0CE011E0F80121913191E2
:1003A0008F013327F901E255FF4F8491F901E65699
:1003B000FF4F9490F901EA57FF4F74907720A1F016
:1003C00081110E948000E72DF0E0EE0FFF1FEE5834
:1003D000FF4FA591B491EC919E2231E020E009F409
:1003E00030E0832F922F02C080E090E0F82FF17070
:1003F0009F2E892B59F0F6018081811107C06881F9
:1004000068256883F70180810E94A900F601919216
:100410006F012196F2E0EF0EF11C21E0043112078A
:1004200009F0BBCFA114B10409F4ABCF0E940000C6
:06043000A8CFF894FFCFF5
:10043600010101010600070008000900020003008F
:0404460004000500A9
:00000001FF
